{
  "contractName": "ValToken",
  "abi": [
    {
      "constant": true,
      "inputs": [],
      "name": "totalSupply",
      "outputs": [
        {
          "name": "",
          "type": "uint256"
        }
      ],
      "payable": false,
      "stateMutability": "view",
      "type": "function"
    },
    {
      "inputs": [
        {
          "name": "_initialSupply",
          "type": "uint256"
        }
      ],
      "payable": false,
      "stateMutability": "nonpayable",
      "type": "constructor"
    }
  ],
  "bytecode": "0x608060405234801561001057600080fd5b506040516020806100e7833981018060405281019080805190602001909291905050508060008190555050609e806100496000396000f300608060405260043610603f576000357c0100000000000000000000000000000000000000000000000000000000900463ffffffff16806318160ddd146044575b600080fd5b348015604f57600080fd5b506056606c565b6040518082815260200191505060405180910390f35b600054815600a165627a7a72305820948a6641a38336b592cc2283aa0dd8e362660394d2ce502117c312caa8af37120029",
  "source": "pragma solidity ^0.4.2;\n\ncontract ValToken{\n//constructor\n//set total tokens\n//read total number of tokens\n  uint256 public totalSupply;\n  function ValToken(uint256 _initialSupply) public{\n  totalSupply=_initialSupply;\n\n  }\n\n\n\n}\n",
  "sourcePath": "/home/hrishabh/Crypto/token_sale/contracts/ValToken.sol",
  "compiler": {
    "name": "solc",
    "version": "0.4.24+commit.e67f0147.Emscripten.clang"
  },
  "schemaVersion": "2.0.1",
  "updatedAt": "2018-10-31T07:29:11.211Z"
}